:04000000BAEF17F04C
:08000800046ED8CF05F0E0CF33
:1000100006F00001E9CF0CF0EACF07F0E1CF08F0DD
:10002000E2CF09F0D9CF0AF0DACF0BF0F3CF12F01C
:10003000F4CF13F0FACF14F0F5CF15F0F6CF16F099
:10004000F7CF17F000C00EF001C00FF002C010F0A3
:1000500003C011F09DA030EF00F09EB021EF11F031
:100060009DAA36EF00F09EBABFEF05F00EC000F07B
:100070000FC001F010C002F011C003F00CC0E9FF86
:1000800007C0EAFF078E08C0E1FF09C0E2FF0AC00F
:10009000D9FF0BC0DAFF12C0F3FF13C0F4FF14C086
:1000A000FAFF15C0F5FF16C0F6FF17C0F7FF0450A2
:1000B00006C0E0FF05C0D8FF1000C80FF66E000EA6
:1000C000F7220900F55012000000000000000000B7
:1000D0000E111B1115110E000E1F151F111F0E0002
:1000E000000A1F1F1F0E040000040E1F1F0E040035
:1000F000040E0E041F1F040000040E1F1F040E0038
:100100000000000C0C0000003F3F3F33333F3F3FF7
:1001100000001E12121E00003F3F212D2D213F3FE7
:100120000007030D12120C000E11110E040E040034
:10013000040605040C1C1800030D0B0D0B1B180006
:1001400000150E1B0E150000080C0E0F0E0C0800FB
:1001500002060E1E0E060200040E1F041F0E0400EF
:100160000A0A0A0A0A000A000F15150D05050500FE
:100170000E110C0A06110E0000000000001E1E00E9
:10018000040E1F041F0E040E040E1F0404040400BA
:10019000040404041F0E04000004061F06040000EB
:1001A00000040C1F0C0400000000001010101F00C1
:1001B000000A0A1F0A0A000004040E0E1F1F000096
:1001C0001F1F0E0E040400000000000000000000CD
:1001D000040E0E04040004001B1B120000000000AB
:1001E000000A1F0A0A1F0A00080E100C021C040055
:1001F00019190204081313000814140815120D002D
:100200000C0C08000000000004080808080804009E
:100210000804040404040800000A0E1F0E0A00006B
:100220000004041F0404000000000000000C0C087F
:100230000000001F0000000000000000000C0C0087
:1002400000010204081000000E11131519110E0010
:10025000040C040404040E000E11010608101F0013
:100260000E11010E01110E0002060A121F020200F9
:100270001F10101E01110E000608101E11110E0095
:100280001F010204080808000E11110E11110E00C2
:100290000E11110F01020C0000000C0C000C0C00E0
:1002A00000000C0C000C0C080204081008040200EA
:1002B00000001F00001F00000804020102040800E3
:1002C0000E110106040004000E11171517100E0080
:1002D0000E1111111F1111001E11111E11111E00FE
:1002E0000E11101010110E001E11111111111E000F
:1002F0001F10101E10101F001F10101E10101000D5
:100300000E11101711110F001111111F11111100F1
:100310000E04040404040E000101010111110E0079
:1003200011121418141211001010101010101F00C8
:10033000111B1511111111001119151311111100B3
:100340000E11111111110E001E11111E10101000AE
:100350000E11111115120D001E11111E1211110096
:100360000E11100E01110E001F04040404040400F9
:100370001111111111110E0011111111110A0400A6
:100380001111151515150A0011110A040A11110091
:100390001111110A040404001E02040810101E00AA
:1003A0000E08080808080E000010080402010000EA
:1003B0000E02020202020E00040A110000000000F8
:1003C000000000000000003F0C0C040000000000D2
:1003D00000000E010F110F0010101E1111111E0050
:1003E00000000E1110110E0001010F1111110F006C
:1003F00000000E111E100E000608081E0808080056
:1004000000000F11110F010E10101C121212120019
:100410000400040404040600020006020202120C96
:10042000101012141814120004040404040406002A
:1004300000001A151511110000001C1212121200F2
:1004400000000E1111110E0000001E1111111E10DE
:1004500000000F1111110F010000160908081C00FF
:1004600000000E100E010E0000081E08080A04000D
:100470000000121212160A0000001111110A0400E5
:1004800000001111151F0A00000012120C121200B8
:1004900000001212120E041800001E020C101E00A2
:1004A00006080818080806000404040004040400F0
:1004B0000C02020302020C000A14000000000000FB
:1004C000040E1B11111F00000E111010110E040C50
:1004D0001200121212160A0003000E111E100E0056
:1004E0000E000E010F110F000A000E010F110F0078
:1004F0000C000E010F110F000E0A0E010F110F005C
:10050000000E1110110E040C0E000E111E100E0024
:100510000A000E111E100E000C000E111E100E000F
:100520000A00040404040600040A0004040406008B
:1005300008000404040406000A00040A111F110044
:100540000E0A0E1B111F110003001F101E101F00AA
:1005500000001E051F140F000F14141F14141700A1
:100560000E000C1212120C000A000C1212120C00D7
:1005700018000C1212120C000E00121212160A00B1
:100580001800121212160A000A001212120E041893
:10059000120C121212120C000A00121212120C008B
:1005A00000040E10100E04000609081E08091700AA
:1005B000110A041F041F04001814141A1712120041
:1005C0000205040E0404140806000E010F110F00AA
:1005D000060004040404060006000C1212120C00AB
:1005E0000600121212160A000A14001C121212003F
:1005F0000A1400121A1612000E010F110F000F003C
:100600000C1212120C001E000400040C10110E003B
:1006100000001F101010000000003F01010000004A
:100620001012140E110207001012140B150701000E
:10063000040004040E0E040000000912090000006A
:10064000000012091200000015002A0015002A00FF
:10065000152A152A152A152A2A3F153F2A3F153F24
:1006600004040404040404040404043C0404040412
:10067000043C043C0404040414141434141414142A
:100680000000003C14141414003C043C0404040452
:1006900014340434141414141414141414141414EA
:1006A000003C0434141414141434043C00000000FE
:1006B0001414143C00000000043C043C0000000042
:1006C0000000003C04040404030509111F1111007B
:1006D0001E10101E11111E001E11111E11111E00E0
:1006E0001F11101010101000060A0A0A0A1F11002C
:1006F0001F10101C10101F0015150E040E151500EC
:100700000E11010601110E0011111315191111001E
:1007100015111315191111001112141814121100CA
:100720000709090909111100111B151511111100F3
:100730001111111F111111000E11111111110E00C3
:100740001F111111111111001E11111E1010100096
:100750000E11101010110E001F15040404040400E3
:100760001111110F01010E000E1515150E040400D4
:1007700011110A040A11110012121212121F0100A3
:100780001111110F010101001515151515151F0087
:1007900015151515151F01001808080E09090E007A
:1007A00011111119151519000808080E09090E0074
:1007B0001E01010701011E001215151D151512005D
:1007C0000F11110F0509110000000E010F110F008C
:1007D0000304020E11110E000814181E11110E0050
:1007E00000001E010E100F000609010F11110E006E
:1007F00000000E111F100E000000150E040E150053
:1008000000000E1106110E0000001212121609004F
:100810000C00121212160900000013141814130011
:1008200000000709091111000000111B1515110026
:10083000000011111F11110000000E1111110E0006
:10084000000016191111110000001E111E101000D9
:1008500000000E1110110E0000001F04040404001B
:10086000000011110F010E0000000E15150E0400FE
:100870000000110A040A110000001212120F0100F8
:10088000000011110F0101000000151515151F00C2
:1008900000001515151F0100000018080E090E00B4
:1008A0000000111119151900000008080E090E00AA
:1008B00000001E0107011E00000012151D15120088
:1008C00000000F110F051900F76AD80FF66E080E19
:1008D000F7220900F550120000C1814001C080419B
:1008E00001C0804100C1814001C0804100C1814000
:1008F00000C1814001C0804101C0804100C18140F0
:1009000000C1814001C0804100C1814001C08041DF
:1009100001C0804100C1814001C0804100C18140CF
:1009200000C1814001C0804100C1814001C08041BF
:1009300001C0804100C1814000C1814001C08041AF
:1009400001C0804100C1814001C0804100C181409F
:1009500000C1814001C0804101C0804100C181408F
:1009600000C1814001C0804100C1814001C080417F
:1009700001C0804100C1814000C1814001C080416F
:1009800001C0804100C1814001C0804100C181405F
:1009900000C1814001C0804100C1814001C080414F
:1009A00001C0804100C1814001C0804100C181403F
:1009B00000C1814001C0804101C0804100C181402F
:1009C00000C1814001C0804100C1814001C080411F
:1009D00001C0804100C18140F76AE80FF66E090E40
:1009E000F7220900F550120000C0C101C30302C282
:1009F000C60607C705C5C404CC0C0DCD0FCFCE0E5F
:100A00000ACACB0BC90908C8D81819D91BDBDA1ACE
:100A10001EDEDF1FDD1D1CDC14D4D515D71716D63E
:100A2000D21213D311D1D010F03031F133F3F232AE
:100A300036F6F737F53534F43CFCFD3DFF3F3EFE1E
:100A4000FA3A3BFB39F9F83828E8E929EB2B2AEA8E
:100A5000EE2E2FEF2DEDEC2CE42425E527E7E626FE
:100A600022E2E323E12120E0A06061A163A3A2626E
:100A700066A6A767A56564A46CACAD6DAF6F6EAEDE
:100A8000AA6A6BAB69A9A86878B8B979BB7B7ABA4E
:100A9000BE7E7FBF7DBDBC7CB47475B577B7B676BE
:100AA00072B2B373B17170B050909151935352922E
:100AB00096565797559594549C5C5D9D5F9F9E5E9E
:100AC0005A9A9B5B99595898884849894B8B8A4A0E
:100AD0004E8E8F4F8D4D4C8C44848545874746867E
:100AE0008242438341818040D8B204D0030EEA6E33
:100AF000650EE96E006A016A026A036A0301656BAA
:100B0000666B676B686B64516311621161112CE055
:100B1000200E696FD8905D375E375F376037653775
:100B20006637673768376451685D08E16351675D10
:100B300005E16251665D02E16151655D0FE361515E
:100B4000655F6251D8A0623D665F6351D8A0633D86
:100B5000675F6451D8A0643D685FD8800036013675
:100B600002360336692FD6D765C3EFFF66C3ECFFA5
:100B700067C3ECFF68C3ECFF0001E0EF05F03D0E3A
:100B800003013D25E96E010E3E21EA6E9EAAFED7C5
:100B9000AECFEFFF3D2BD8B43E2B94928B72D89200
:100BA000020E606F160E5F6F0E0E5E6FC00E5D6FF1
:100BB000646B636B25C162F324C161F3000194D7B8
:100BC000FF0ED88000560156000E0256035601C093
:100BD000CFFF00C0CEFF9E909D809E9A36EF00F022
:100BE000FF0E0301666F676F646B6351645D1CE207
:100BF000036A64516125E96E62510320EA6EEF5089
:100C00006719656F036A655100015EDE016E0301BD
:100C100066510118676F036A65510001DDDEE8CF98
:100C200066F30301642BE1D767C303F066C301F0E9
:100C300067C302F00001000C040003015F51000AC9
:100C40000001D8B4B1D0010AD8B4C7D0030AD8B4CF
:100C5000DDD0010AD8B4F3D0070AD8B409D1010A0B
:100C6000D8B41FD1030AD8B435D1010AD8B44BD1B6
:100C70000F0AD8B461D1010AD8B477D1030AD8B425
:100C80008DD1010AD8B4A3D1070AD8B4B9D1010AC9
:100C9000D8B4CFD1030AD8B4E5D1010AD8B4FBD176
:100CA0001F0AD8B410D2010AD8B425D2030AD8B486
:100CB0003AD2010AD8B455D2070AD8B470D2010A80
:100CC000D8B487D2030AD8B49ED2010AD8B4B5D218
:100CD0000F0AD8B4CAD2010AD8B4DFD2030AD8B4F2
:100CE000F4D2010AD8B409D3070AD8B41ED3010A32
:100CF000D8B433D3030AD8B448D3010AD8B45DD3E7
:100D00003F0AD8B472D3010AD8B487D3030AD8B43F
:100D10009CD3010AD8B4B1D3070AD8B4C6D3010A08
:100D2000D8B4DBD3030AD8B485EF0AF0010AD8B4EB
:100D30009DEF0AF00F0AD8B4B5EF0AF0010AD8B453
:100D4000CDEF0AF0030AD8B4E5EF0AF0010AD8B4EF
:100D5000FDEF0AF0070AD8B415EF0BF0010AD8B47A
:100D60002DEF0BF0030AD8B445EF0BF0010AD8B40D
:100D70005DEF0BF01F0AD8B475EF0BF0010AD8B481
:100D800093EF0BF0030AD8B4B1EF0BF0010AD8B41B
:100D9000CFEF0BF0070AD8B4EDEF0BF0010AD8B48F
:100DA0000BEF0CF029EF0CF03D0E03014A25E96E24
:100DB000010EEA6ED8B0EA2AEF6A4A2B3D0E4A25A8
:100DC000E96E010EEA6ED8B0EA2AEF6A4A2B020EEB
:100DD0003D27000E3E2338EF0CF03D0E03014A255F
:100DE000E96E010EEA6ED8B0EA2AEF6A4A2B3D0E90
:100DF0004A25E96E010EEA6ED8B0EA2AEF6A4A2B5C
:100E0000020E3D27000E3E2338EF0CF03D0E03018D
:100E10004A25E96E010EEA6ED8B0EA2AEF6A4A2B3B
:100E20003D0E4A25E96E010EEA6ED8B0EA2AEF6A55
:100E30004A2B020E3D27000E3E2338EF0CF03D0EEC
:100E400003014A25E96E010EEA6ED8B0EA2AEF6A7C
:100E50004A2B3D0E4A25E96E010EEA6ED8B0EA2A09
:100E6000EF6A4A2B020E3D27000E3E2338EF0CF0AE
:100E70003D0E03014A25E96E010EEA6ED8B0EA2A5A
:100E8000EF6A4A2B3D0E4A25E96E010EEA6ED8B094
:100E9000EA2AEF6A4A2B020E3D27000E3E2338EF66
:100EA0000CF03D0E03014A25E96E010EEA6ED8B042
:100EB000EA2AEF6A4A2B3D0E4A25E96E010EEA6ED8
:100EC000D8B0EA2AEF6A4A2B020E3D27000E3E23D5
:100ED00038EF0CF03D0E03014A25E96E010EEA6E73
:100EE000D8B0EA2AEF6A4A2B3D0E4A25E96E010E78
:100EF000EA6ED8B0EA2AEF6A4A2B020E3D27000EAE
:100F00003E2338EF0CF03D0E03014A25E96E010E39
:100F1000EA6ED8B0EA2AEF6A4A2B3D0E4A25E96EFE
:100F2000010EEA6ED8B0EA2AEF6A4A2B020E3D277C
:100F3000000E3E2338EF0CF03D0E03014A25E96E0A
:100F4000010EEA6ED8B0EA2AEF6A4A2B3D0E4A2516
:100F5000E96E010EEA6ED8B0EA2AEF6A4A2B020E59
:100F60003D27000E3E2338EF0CF03D0E03014A25CD
:100F7000E96E010EEA6ED8B0EA2AEF6A4A2B3D0EFE
:100F80004A25E96E010EEA6ED8B0EA2AEF6A4A2BCA
:100F9000020E3D27000E3E2338EF0CF03D0E0301FC
:100FA0004A25E96E010EEA6ED8B0EA2AEF6A4A2BAA
:100FB0003D0E4A25E96E010EEA6ED8B0EA2AEF6AC4
:100FC0004A2B020E3D27000E3E2338EF0CF03D0E5B
:100FD00003014A25E96E010EEA6ED8B0EA2AEF6AEB
:100FE0004A2B3D0E4A25E96E010EEA6ED8B0EA2A78
:100FF000EF6A4A2B020E3D27000E3E2338EF0CF01D
:101000003D0E03014A25E96E010EEA6ED8B0EA2AC8
:10101000EF6A4A2B3D0E4A25E96E010EEA6ED8B002
:10102000EA2AEF6A4A2B020E3D27000E3E2338EFD4
:101030000CF03D0E03014A25E96E010EEA6ED8B0B0
:10104000EA2AEF6A4A2B3D0E4A25E96E010EEA6E46
:10105000D8B0EA2AEF6A4A2B020E3D27000E3E2343
:1010600038EF0CF03D0E03014A25E96E010EEA6EE1
:10107000D8B0EA2AEF6A4A2B3D0E4A25E96E010EE6
:10108000EA6ED8B0EA2AEF6A4A2B020E3D27000E1C
:101090003E2338EF0CF03D0E03014A25E96E010EA8
:1010A000EA6ED8B0EA2AEF6A4A2B3D0E4A25E96E6D
:1010B000010EEA6ED8B0EA2AEF6A4A2B020E3D27EB
:1010C000000E3E23D5D33D0E03014A25E96E010EE5
:1010D000EA6ED8B0EA2AEF6A4A2B3D0E4A25E96E3D
:1010E000010EEA6ED8B0EA2AEF6A4A2B020E3D27BB
:1010F000000E3E23BDD33D0E03014A25E96E010ECD
:10110000EA6ED8B0EA2AEF6A4A2B3D0E4A25E96E0C
:10111000010EEA6ED8B0EA2AEF6A4A2B020E3D278A
:10112000000E3E23A5D33D0E03014A25E96E010EB4
:10113000EA6ED8B0EA2A010125C1EFFF03014A2B6C
:101140003D0E4A25E96E010EEA6ED8B0EA2A010189
:1011500024C1EFFF03014A2B020E3D27000E3E2360
:1011600087D33D0E03014A25E96E010EEA6ED8B021
:10117000EA2A010127C1EFFF03014A2B3D0E4A2550
:10118000E96E010EEA6ED8B0EA2A010126C1EFFF2E
:1011900003014A2B020E3D27000E3E2369D33D0E6C
:1011A00003014A25E96E010EEA6ED8B0EA2A40C36F
:1011B000EFFF4A2B3D0E4A25E96E010EEA6ED8B0CC
:1011C000EA2A3FC3EFFF4A2B020E3D27000E3E23C3
:1011D0004FD33D0E03014A25E96E010EEA6ED8B0E9
:1011E000EA2A42C3EFFF4A2B3D0E4A25E96E010E63
:1011F000EA6ED8B0EA2A41C3EFFF4A2B020E3D2720
:10120000000E3E2335D33D0E03014A25E96E010E43
:10121000EA6ED8B0EA2A44C3EFFF4A2B3D0E4A25B6
:10122000E96E010EEA6ED8B0EA2A43C3EFFF4A2BFB
:10123000020E3D27000E3E231BD33D0E03014A251F
:10124000E96E010EEA6ED8B0EA2AEF6A4A2B3D0E2B
:101250004A25E96E010EEA6ED8B0EA2AEF6A4A2BF7
:10126000020E3D27000E3E2303D33D0E03014A2507
:10127000E96E010EEA6ED8B0EA2AEF6A4A2B3D0EFB
:101280004A25E96E010EEA6ED8B0EA2AEF6A4A2BC7
:10129000020E3D27000E3E23EBD23D0E03014A25F0
:1012A000E96E010EEA6ED8B0EA2AEF6A4A2B3D0ECB
:1012B0004A25E96E010EEA6ED8B0EA2AEF6A4A2B97
:1012C000020E3D27000E3E23D3D23D0E03014A25D8
:1012D000E96E010EEA6ED8B0EA2AEF6A4A2B3D0E9B
:1012E0004A25E96E010EEA6ED8B0EA2AEF6A4A2B67
:1012F000020E3D27000E3E23BBD23D0E03014A25C0
:10130000E96E010EEA6ED8B0EA2AEF6A4A2B3D0E6A
:101310004A25E96E010EEA6ED8B0EA2AEF6A4A2B36
:10132000020E3D27000E3E23A3D23D0E03014A25A7
:10133000E96E010EEA6ED8B0EA2AEF6A4A2B3D0E3A
:101340004A25E96E010EEA6ED8B0EA2AEF6A4A2B06
:10135000020E3D27000E3E238BD23D0E03014A258F
:10136000E96E010EEA6ED8B0EA2AEF6A4A2B3D0E0A
:101370004A25E96E010EEA6ED8B0EA2AEF6A4A2BD6
:10138000020E3D27000E3E2373D23D0E03014A2577
:10139000E96E010EEA6ED8B0EA2AEF6A4A2B3D0EDA
:1013A0004A25E96E010EEA6ED8B0EA2AEF6A4A2BA6
:1013B000020E3D27000E3E235BD23D0E03014A255F
:1013C000E96E010EEA6ED8B0EA2AEF6A4A2B3D0EAA
:1013D0004A25E96E010EEA6ED8B0EA2AEF6A4A2B76
:1013E000020E3D27000E3E2343D23D0E03014A2547
:1013F000E96E010EEA6ED8B0EA2AEF6A4A2B3D0E7A
:101400004A25E96E010EEA6ED8B0EA2AEF6A4A2B45
:10141000020E3D27000E3E232BD23D0E03014A252E
:10142000E96E010EEA6ED8B0EA2AEF6A4A2B3D0E49
:101430004A25E96E010EEA6ED8B0EA2AEF6A4A2B15
:10144000020E3D27000E3E2313D23D0E03014A2516
:10145000E96E010EEA6ED8B0EA2AEF6A4A2B3D0E19
:101460004A25E96E010EEA6ED8B0EA2AEF6A4A2BE5
:10147000020E3D27000E3E23FBD13D0E03014A25FF
:10148000E96E010EEA6ED8B0EA2AEF6A4A2B3D0EE9
:101490004A25E96E010EEA6ED8B0EA2AEF6A4A2BB5
:1014A000020E3D27000E3E23E3D13D0E03014A25E7
:1014B000E96E010EEA6ED8B0EA2AEF6A4A2B3D0EB9
:1014C0004A25E96E010EEA6ED8B0EA2AEF6A4A2B85
:1014D000020E3D27000E3E23CBD13D0E03014A25CF
:1014E000E96E010EEA6ED8B0EA2AEF6A4A2B3D0E89
:1014F0004A25E96E010EEA6ED8B0EA2AEF6A4A2B55
:10150000020E3D27000E3E23B3D13D0E03014A25B6
:10151000E96E010EEA6ED8B0EA2AEF6A4A2B3D0E58
:101520004A25E96E010EEA6ED8B0EA2AEF6A4A2B24
:10153000020E3D27000E3E239BD13D0E03014A259E
:10154000E96E010EEA6ED8B0EA2AEF6A4A2B3D0E28
:101550004A25E96E010EEA6ED8B0EA2AEF6A4A2BF4
:10156000020E3D27000E3E2383D13D0E03014A2586
:10157000E96E010EEA6ED8B0EA2AEF6A4A2B3D0EF8
:101580004A25E96E010EEA6ED8B0EA2AEF6A4A2BC4
:10159000020E3D27000E3E236BD13D0E03014A256E
:1015A000E96E010EEA6ED8B0EA2AEF6A4A2B3D0EC8
:1015B0004A25E96E010EEA6ED8B0EA2AEF6A4A2B94
:1015C000020E3D27000E3E2353D13D0E03014A2556
:1015D000E96E010EEA6ED8B0EA2AEF6A4A2B3D0E98
:1015E0004A25E96E010EEA6ED8B0EA2AEF6A4A2B64
:1015F000020E3D27000E3E233BD13D0E03014A253E
:10160000E96E010EEA6ED8B0EA2AEF6A4A2B3D0E67
:101610004A25E96E010EEA6ED8B0EA2AEF6A4A2B33
:10162000020E3D27000E3E2323D13D0E03014A2525
:10163000E96E010EEA6ED8B0EA2AEF6A4A2B3D0E37
:101640004A25E96E010EEA6ED8B0EA2AEF6A4A2B03
:10165000020E3D27000E3E230BD13D0E03014A250D
:10166000E96E010EEA6ED8B0EA2AEF6A4A2B3D0E07
:101670004A25E96E010EEA6ED8B0EA2AEF6A4A2BD3
:10168000020E3D27000E3E23F3D03D0E03014A25F6
:10169000E96E010EEA6ED8B0EA2AEF6A4A2B3D0ED7
:1016A0004A25E96E010EEA6ED8B0EA2AEF6A4A2BA3
:1016B000020E3D27000E3E23DBD03D0E03014A25DE
:1016C000E96E010EEA6ED8B0EA2AEF6A4A2B3D0EA7
:1016D0004A25E96E010EEA6ED8B0EA2AEF6A4A2B73
:1016E000020E3D27000E3E23C3D03D0E03014A25C6
:1016F000E96E010EEA6ED8B0EA2A010131C1EFFFAE
:1017000003014A2B3D0E4A25E96E010EEA6ED8B060
:10171000EA2A010130C1EFFF03014A2B020E3D27E7
:10172000000E3E23A5D03D0E03014A25E96E010EB1
:10173000EA6ED8B0EA2A010133C1EFFF03014A2B58
:101740003D0E4A25E96E010EEA6ED8B0EA2A010183
:1017500032C1EFFF03014A2B020E3D27000E3E234C
:1017600087D03D0E03014A25E96E010EEA6ED8B01E
:10177000EA2A01012DC1EFFF03014A2B3D0E4A2544
:10178000E96E010EEA6ED8B0EA2A01012CC1EFFF22
:1017900003014A2B020E3D27000E3E2369D03D0E69
:1017A00003014A25E96E010EEA6ED8B0EA2A01016A
:1017B0002FC1EFFF03014A2B3D0E4A25E96E010EB2
:1017C000EA6ED8B0EA2A01012EC1EFFF03014A2BCD
:1017D000020E3D27000E3E234BD03D0E03014A254D
:1017E000E96E010EEA6ED8B0EA2A010129C1EFFFC5
:1017F00003014A2B3D0E4A25E96E010EEA6ED8B070
:10180000EA2A010128C1EFFF03014A2B020E3D27FE
:10181000000E3E232DD03D0E03014A25E96E010E38
:10182000EA6ED8B0EA2A01012BC1EFFF03014A2B6F
:101830003D0E4A25E96E010EEA6ED8B0EA2A010192
:101840002AC1EFFF03014A2B020E3D27000E3E2363
:101850000FD001013E8F030E3F6F03013E6B050E5B
:101860003D6F432BD8B4442B3F51D8B440073F07BA
:101870000001E1EF11F003016051010B006E036AFA
:101880000050031003E096908D8002D096908D90CA
:101890006051020B006E036A0050031003E0969241
:1018A0008D8202D096928D926051040B006E036A75
:1018B0000050031003E094908B8002D094908B90A2
:1018C000000185EF0EF09298899804000C0E006ECE
:1018D000002EFED700D0030161510F0B1009626F7B
:1018E000C95062C3C9FFC730FEE360C362F3C95089
:1018F00060C3C9FFC730FEE304000C0E006E002E6B
:10190000FED700D0929889880001000C929A899A9B
:1019100004000C0E006E002EFED700D003016151B2
:101920000F0B1009626FC95062C3C9FFC730FEE3D5
:1019300060C362F3C95060C3C9FFC730FEE304004F
:101940000C0E006E002EFED700D0929A898A0001FC
:10195000000C929C899C04000C0E006E002EFED799
:1019600000D0C950110EC96EC730FEE3040060C339
:1019700062F3C95060C3C9FFC730FEE304000C0E18
:10198000006E002EFED700D0929C898C000C929E97
:10199000899E04000C0E006E002EFED700D0C950A8
:1019A000110EC96EC730FEE3040060C362F3C95074
:1019B00060C3C9FFC730FEE304000C0E006E002EAA
:1019C000FED700D0929E898E000C040003015F5167
:1019D000000A0001D8B4A0D0010AD8B4A1D0030AEB
:1019E000D8B4A2D0010AD8B4A3D0070AD8B4A4D0DE
:1019F000010AD8B4A5D0030AD8B4A6D0010AD8B435
:101A0000A7D00F0AD8B4A8D0010AD8B4A9D0030A25
:101A1000D8B4AAD0010AD8B4ABD0070AD8B4ACD095
:101A2000010AD8B4ADD0030AD8B4AED0010AD8B4F4
:101A3000AFD01F0AD8B4B0D0010AD8B4B1D0030ACD
:101A4000D8B4B2D0010AD8B4B3D0070AD8B4CBD036
:101A5000010AD8B4CCD0030AD8B4CDD0010AD8B486
:101A6000CED00F0AD8B4CFD0010AD8B4D0D0030A50
:101A7000D8B4D1D0010AD8B4D2D0070AD8B4D3D0C0
:101A8000010AD8B4D4D0030AD8B4D5D0010AD8B446
:101A9000D6D03F0AD8B4D7D0010AD8B4D8D0030AD8
:101AA000D8B4D9D0010AD8B4DAD0070AD8B4DBD078
:101AB000010AD8B4DCD0030AD8B4DDD0010AD8B406
:101AC000DED00F0AD8B4DFD0010AD8B4E0D0030AC0
:101AD000D8B4E1D0010AD8B4E2D0070AD8B4E3D030
:101AE000010AD8B4E4D0030AD8B4E5D0010AD8B4C6
:101AF000E6D01F0AD8B4E7D0010AD8B4E8D0030A68
:101B0000D8B407D1010AD8B426D1070AD8B445D130
:101B1000010AD8B464D185D1020E03014A2790D1BD
:101B2000020E03014A278CD1020E03014A2788D1F5
:101B3000020E03014A2784D1020E03014A2780D1F5
:101B4000020E03014A277CD1020E03014A2778D1F5
:101B5000020E03014A2774D1020E03014A2770D1F5
:101B6000020E03014A276CD1020E03014A2768D1F5
:101B7000020E03014A2764D1020E03014A2760D1F5
:101B8000020E03014A275CD1020E03014A2758D1F5
:101B9000020E03014A2754D1020E03014A2750D1F5
:101BA000020E03014A274CD1020E03014A2748D1F5
:101BB0003D0E03014A25E96E010EEA6ED8B0EA2A0D
:101BC000EFCF60F3010E4A253D0FE96E010EEA6E7C
:101BD000D8B0EA2AEFCF61F360C327F161C326F1E1
:101BE000020E4A272DD1020E03014A2729D1020EE7
:101BF00003014A2725D1020E03014A2721D1020EF3
:101C000003014A271DD1020E03014A2719D1020EF2
:101C100003014A2715D1020E03014A2711D1020EF2
:101C200003014A270DD1020E03014A2709D1020EF2
:101C300003014A2705D1020E03014A2701D1020EF2
:101C400003014A27FDD0020E03014A27F9D0020EF4
:101C500003014A27F5D0020E03014A27F1D0020EF4
:101C600003014A27EDD0020E03014A27E9D0020EF4
:101C700003014A27E5D0020E03014A27E1D0020EF4
:101C800003014A27DDD0020E03014A27D9D0020EF4
:101C900003014A27D5D0020E03014A27D1D0020EF4
:101CA00003014A27CDD0020E03014A27C9D0020EF4
:101CB00003014A27C5D0020E03014A27C1D0020EF4
:101CC00003014A27BDD0020E03014A27B9D03D0EB9
:101CD00003014A25E96E010EEA6ED8B0EA2AEFCF79
:101CE00060F3010E4A253D0FE96E010EEA6ED8B091
:101CF000EA2AEFCF61F360C333F161C332F133C13C
:101D000061F332C160F30001B6D5020E03014A2728
:101D100097D03D0E03014A25E96E010EEA6ED8B058
:101D2000EA2AEFCF60F3010E4A253D0FE96E010E5E
:101D3000EA6ED8B0EA2AEFCF61F360C32DF161C338
:101D40002CF12DC161F32CC160F30001BCDD020E4A
:101D500003014A2775D03D0E03014A25E96E010EA5
:101D6000EA6ED8B0EA2AEFCF60F3010E4A253D0FA4
:101D7000E96E010EEA6ED8B0EA2AEFCF61F360C3D4
:101D80002FF161C32EF12FC161F32EC160F3000169
:101D9000BDDD020E03014A2753D03D0E03014A2543
:101DA000E96E010EEA6ED8B0EA2AEFCF60F3010EB9
:101DB0004A253D0FE96E010EEA6ED8B0EA2AEFCF50
:101DC00061F360C329F161C328F129C161F328C11E
:101DD00060F30001BEDD020E03014A2731D03D0E43
:101DE00003014A25E96E010EEA6ED8B0EA2AEFCF68
:101DF00060F3010E4A253D0FE96E010EEA6ED8B080
:101E0000EA2AEFCF61F360C32BF161C32AF12BC142
:101E100061F32AC160F30001BADD020E03014A2713
:101E20000FD001013E8F030E3F6F03013E6B050E85
:101E30003D6F432BD8B4442B3F51D8B440073F07E4
:101E4000000116EF12F00400FF0E956E929689863F
:101E5000929089809292899292948994956E83CF80
:101E600067F39294898492928982000E956E0400A1
:101E7000030167C301F00001000CE5DF0150030B13
:101E80000308FBE1929689869292898292908990CA
:101E9000956A63C38CFF92948994929489849290FA
:101EA0008980000CD0DF0150030B0308FBE1929600
:101EB00089969292898292908990956A64C38CFFE8
:101EC000929489949294898492908980929689863A
:101ED000000CD19024C15FF3A96A5FC3A8FFA69C40
:101EE000A69EA684F250006EF29E0F01550EA76EBC
:101EF000AA0EA76EA682A6B2FED7A6940050F21232
:101F000025C15FF3010EA96E5FC3A8FFA69CA69E24
:101F1000A684F250006EF29E550EA76EAA0EA76E12
:101F2000A682A6B2FED7A6940050F21226C15FF395
:101F3000020EA96E26C1A8FFA69CA69EA684F2CF7B
:101F400000F0F29E550EA76EAA0EA76EA682A6B24C
:101F5000FED7A6940050F21227C15FF3030EA96EBC
:101F600027C1A8FFA69CA69EA684F2CF00F0F29EF1
:101F7000550EA76EAA0EA76EA682A6B2FED7A6948D
:101F80000050F21228C15FF3040EA96E28C1A8FF09
:101F9000A69CA69EA684F2CF00F0F29E550EA76ED8
:101FA000AA0EA76EA682A6B2FED7A6940050F21281
:101FB00029C15FF3050EA96E29C1A8FFA69CA69EA4
:101FC000A684F2CF00F0F29E550EA76EAA0EA76E61
:101FD000A682A6B2FED7A6940050F2122AC15FF3E1
:101FE000060EA96E2AC1A8FFA69CA69EA684F2CFC3
:101FF00000F0F29E550EA76EAA0EA76EA682A6B29C
:10200000FED7A6940050F2122BC15FF3070EA96E03
:102010002BC1A8FFA69CA69EA684F2CF00F0F29E3C
:10202000550EA76EAA0EA76EA682A6B2FED7A694DC
:102030000050F212D18000018CEF12F004DF015049
:10204000030B0308FBE19296899692928982929003
:102050008990956A65C38CFF04000C0E006E002EFB
:10206000FED700D09294899404000C0E006E002ECE
:10207000FED700D092948984929089809296898626
:10208000E2DE0150030B0308FBE1929689969292DF
:10209000898292908990956A66C38CFF04000C0E29
:1020A000006E002EFED700D09294899404000C0E8E
:1020B000006E002EFED700D0929489849290898081
:1020C00092968986C0DE0150030B0308FBE19296CD
:1020D00089869292898292908990956A240E8C6E5C
:1020E00004000C0E006E002EFED700D0929489944E
:1020F00004000C0E006E002EFED700D0929489844E
:1021000092908980000C080E0301666F656B0001D8
:1021100095DFB00E0301636F0001AFDE0301606B5A
:10212000010E5F6F6051090808E3646B0001BADEBD
:1021300003015F2BD8B4602BF5D7B20E636F00019B
:102140009CDE000C030167516903F3CF01F0F4CF6B
:1021500000F06A03F350002668516903F350002031
:10216000026E0001000C036A03015FC363F3080EF3
:102170000324646F666B60C365F366C368F360C372
:1021800067F36A6B140E696F0001DCDF02C003F0B5
:102190000150030163270250642364C366F363C3E1
:1021A00065F300014BDFB00E0301636F000165DED4
:1021B00062C303F0030161C3E9FF62C3EAFFEF52A8
:1021C00011E062C303F06151612BD8B4622BE96E58
:1021D00003C0EAFFEFCF63F363C364F3000162DE81
:1021E000E7D70301B20E636F000147DE000C030E58
:1021F000EA6E5F0EE96EEF5011E00A0E016EBF0E3F
:10220000006E0400002EFDD7012EF9D75E0E006E81
:10221000002EFED700D00400EF2EEFD73FEF14F0D2
:1022200094948B849EA8FED7030160C3ADFF000089
:1022300094948B84ACA2FED794948B940001D6EF37
:1022400014F09D9A03013E5305E13D51030802E35A
:10225000DAEF14F0010126513D5D05E03D5303E046
:102260000301DAEF14F0020E03013D5D5F6F000E13
:102270003E59606F010E626F3D0E616F5FC363F385
:102280000001F0EC05F002C048F301C047F3020E74
:1022900003013D5D5F6F000E3E59606F3D0E5F258F
:1022A000E96E010E6021EA6EEFCF5FF3010E3D5D36
:1022B000606F000E3E59616F3D0E6025E96E010EA4
:1022C0006121EA6EEFCF60F35FC346F360C345F36D
:1022D0004551475D03E14651485D05E0412BD8B4C7
:1022E000422BDAEF14F001013E51420A000124E0D2
:1022F000060A48E0010AD8B475D0030AD8B4A7D0BA
:10230000010AD8B4C3D00F0AD8B4DFD02D0AD8B48C
:10231000FBD0030AD8B415D1010AD8B42FD10F0AC3
:10232000D8B46FD1010AD8B4C4D1030AD8B43CD20E
:10233000010AD8B4B4D2E8D203013D51050815E131
:102340003E5313E101013F51020802E1FF000BD0AF
:102350003E8F030E3F6F0301432BD8B4442B3E6BDB
:10236000050E3D6F01010DD0030101013E8F020EEC
:102370003F6F03013E6B050E3D6F432BD8B4442BDA
:102380000101CED203013D5107081FE13E531DE17B
:102390003E6B040E3D6F3F2BD8B4402B020E4A6FAC
:1023A00040C15DF301014151402503015E6F5DC3F2
:1023B00049F35E51495D08E249C35FF300011CEF38
:1023C00006F00301492BF5D70BD001013E8F020E19
:1023D0003F6F03013E6B050E3D6F432BD8B4442B7A
:1023E00001019ED203013E5303E13D51070822E261
:1023F0003D51010B006E036A005003101BE1040EF7
:102400004A6F40C15DF3020E3D5D5E6F3E6B040E90
:102410003D6F3F2BD8B4402B5DC349F35E514A5DFD
:1024200008E249C35FF30001E5EF0CF00301492B1B
:10243000F5D70BD001013E8F020E3F6F03013E6BBB
:10244000050E3D6F432BD8B4442B010169D2030123
:102450003D5104080EE13E530CE10001F4DC01C0E3
:102460003FF103013E6B050E3D6F3F2BD8B4402B6F
:102470000BD001013E8F020E3F6F03013E6B050E34
:102480003D6F432BD8B4442B01014AD203013D5187
:1024900005080EE13E530CE13FC163F30001EDDCA2
:1024A00003013E6B040E3D6F3F2BD8B4402B0BD085
:1024B00001013E8F020E3F6F03013E6B050E3D6F23
:1024C000432BD8B4442B01012BD203013D51050805
:1024D0000EE13E530CE13FC164F30001E3DC030174
:1024E0003E6B040E3D6F3F2BD8B4402B0BD0010147
:1024F0003E8F020E3F6F03013E6B050E3D6F432B77
:10250000D8B4442B01010CD203013D5104080CE165
:102510003E530AE10001DDD403013E6B040E3D6F22
:102520003F2BD8B4402B0BD001013E8F020E3F6FE2
:1025300003013E6B050E3D6F432BD8B4442B0101C4
:10254000EFD103013D5104080CE13E530AE10001C3
:10255000DADD03013E6B040E3D6F3F2BD8B4402BF8
:102560000BD001013E8F020E3F6F03013E6B050E43
:102570003D6F432BD8B4442B0101D2D103013D510F
:10258000060832E13E5330E101013F51130802E2F7
:10259000000E01D0010E03015F6F010140510F08D1
:1025A00002E2000E01D0010E03015F1511E09F0E43
:1025B000636F000162DC3FC164F374DC40C164F30B
:1025C00071DC210E0301636F000157DC05D00301AC
:1025D0009C0E636F000151DC03013E6B040E3D6FE6
:1025E0003F2BD8B4402B0BD001013E8F020E3F6F22
:1025F00003013E6B050E3D6F432BD8B4442B010104
:102600008FD103013E5303E13D51060845E2040E1C
:10261000496F020E3D5D006E000E3E59036E00C014
:1026200001F0035203E10150495D18E2040E495DD7
:10263000036A220F016E000E03223D0E4925E96E4A
:10264000010EEA6ED8B0EA2AEFCF61F303C0EAFFC9
:1026500001C0E9FF61C3EFFF492BDBD7060E3D5DEB
:102660005F6F000E3E59606F220E5F25E96E000E0F
:102670006021EA6EEF6A3FC15FF340C160F3626BB5
:10268000220E616F00016FDD03013E6B040E3D6F92
:102690003F2BD8B4402B0BD001013E8F020E3F6F71
:1026A00003013E6B050E3D6F432BD8B4442B010153
:1026B00037D103013D51006E3E51036E035005E1D9
:1026C000070E005C000109E00301035005E1090E5B
:1026D000005C000128E003015AD00301496B0101AD
:1026E0003F519F0804E2FF0E0301496F0101405171
:1026F0007F0803E2FF0E0301496F0301495307E11D
:102700003E6B040E3D6F3F2BD8B4402B0BD0010124
:102710003E8F030E3F6F03013E6B050E3D6F432B53
:10272000D8B4442B3FD00301496B01013F519F08AE
:1027300004E2FF0E0301496F010140517F0804E2EA
:10274000FF0E0301496F010141519F0804E2FF0E92
:102750000301496F010142517F0803E2FF0E0301AB
:10276000496F0301495307E13E6B040E3D6F3F2B58
:10277000D8B4402B0BD001013E8F030E3F6F0301F5
:102780003E6B050E3D6F432BD8B4442B0BD001019B
:102790003E8F020E3F6F03013E6B050E3D6F432BD4
:1027A000D8B4442B0101BCD003013D510508D8A485
:1027B00068D03E53D8A465D03E6B040E3D6F3F2BCE
:1027C000D8B4402B01013F51000A00010FE0010A7B
:1027D0001CE0030A20E0010A24E0070A28E0010ABD
:1027E0002CE0030A30E0010A34E038D0040E010185
:1027F000256FB00E246FB8860A0EAF6E1A0EB06E3B
:10280000A60EAC6E0000000035D0070E0101256F4A
:10281000080E246F2FD0090E0101256F600E246F62
:1028200029D0120E0101256FC00E246F23D01C0E7B
:102830000101256F200E246F1DD0250E0101256F8B
:10284000800E246F17D0380E0101256F400E246FC3
:1028500011D04B0E0101256F246B0CD001013E8F6E
:10286000030E3F6F03013E6B050E3D6F432BD8B443
:10287000442B0101640E03015F6F0001B8D40DD039
:10288000030101013E8F020E3F6F03013E6B050EF7
:102890003D6F432BD8B4442B0001010141D003010B
:1028A0003D51040824E13E5322E14D0E01013F6FEA
:1028B000570E406F540E416F2D0E426F540E436FF2
:1028C0004D0E446F330E456F200E466F760E476FE8
:1028D000310E486F2E0E496F300E4A6F4B6F030159
:1028E0003E6B100E3D6F3F2BD8B4402B0BD0010137
:1028F0003E8F020E3F6F03013E6B050E3D6F432B73
:10290000D8B4442B01010CD001013E8F010E3F6F62
:1029100003013E6B050E3D6F432BD8B4442B0101E0
:102920003D5349E0020E03013D5D5F6F000E3E59CD
:10293000606F010E626F3D0E616F5FC363F3000154
:10294000F0EC05F002C048F301C047F3020E0301AA
:102950003D5D5F6F000E3E59606F3D0E5F25E96E75
:10296000010E6021EA6E48C3EFFF010E3D5D5F6F0F
:10297000000E3E59606F3D0E5F25E96E010E60212D
:10298000EA6E47C3EFFF496B3E5303E13D51495D9A
:1029900011E23D0E4925E96E010EEA6ED8B0EA2A31
:1029A000EFCF5FF35FC360F300013AD4040003018B
:1029B000492BEAD7010103013E6B3D6B9D909D8A37
:1029C0009E90000136EF00F04C4344205465726D38
:1029D000696E616C204D6F64756C6500544D2D33CC
:1029E0002076312E352E3800426175643A00CFEEE4
:1029F000E4E3EEF2EEE2EAE00000EA20F0E0E1EEED
:102A0000F2E52E2E2E00CFEEE6E0EBF3E9F1F2E058
:102A10002CEEE6E8E4E0E9F2E52E00003230323058
:102A2000204F4F4F204D42540000700ED36EC00E09
:102A30009B6ED3509698D180070EB46E9250926ED2
:102A400004001A0E006E002EFED7B450A19CB56A89
:102A5000C150C00B0F09C16EC290F19EFF0E936E64
:102A600092988988929A898A929C898C929E898E62
:102A700094928B8294948B9496948D849290898076
:102A800092928982929489849296898696908D906A
:102A900096928D9294908B90C50ED56EB50ECD6E9C
:102AA000000ECA6E000ECB6EB16A94948B94C69AD7
:102AB000949A94889496300EC66E400EC76E14EFAA
:102AC0001AF0F2CF50F3F29E010EA96EA69CA69EBC
:102AD000A680A850030150BFF28E516FF2CF52F37F
:102AE000F29EA96AA69CA69EA680A85052BFF28E0E
:102AF000536F51C325F153C324F1F2CF50F3F29E2B
:102B0000030EA96EA69CA69EA680A85050BFF28E6A
:102B1000516FF2CF52F3F29E020EA96EA69CA69EB2
:102B2000A680A85052BFF28E536F51C327F153C3F2
:102B300026F1F2CF50F3F29E050EA96EA69CA69E3A
:102B4000A680A85050BFF28E516FF2CF52F3F29E82
:102B5000040EA96EA69CA69EA680A85052BFF28E17
:102B6000536F51C329F153C328F1F2CF50F3F29EB2
:102B7000070EA96EA69CA69EA680A85050BFF28EF6
:102B8000516FF2CF52F3F29E060EA96EA69CA69E3E
:102B9000A680A85052BFF28E536F51C32BF153C37E
:102BA0002AF1000116EF1AF003013E6B3D6B0001A4
:102BB00018EF1AF0196AF2BE198EF29E23EC0FF08C
:102BC00019BEF28E0150030B0308F4E19296899628
:102BD0009292898292908990956A52C38CFF0400E8
:102BE0000C0E006E002EFED700D092948994040043
:102BF0000C0E006E002EFED700D092948984929025
:102C0000898092968986196AF2BE198EF29E23EC0B
:102C10000FF019BEF28E0150030B0308F4E19296F7
:102C200089969292898292908990956A53C38CFF7B
:102C300004000C0E006E002EFED700D092948994F2
:102C400004000C0E006E002EFED700D092948984F2
:102C50009290898092968986000C0301536B526B87
:102C60000001A8DF196AF2BE198EF29E240E03013C
:102C7000636F00013DEC0FF019BEF28E196AF2BECF
:102C8000198EF29EB00E0301636F00013DEC0FF050
:102C900019BEF28E0301516B506B5151070819E3B5
:102CA00051C303F0505151C3F7FF00015DEC00F038
:102CB0000301526F196AF2BE198EF29E646F000111
:102CC00052EC0FF019BEF28E0301502BD8B4512BE9
:102CD000E4D7196AF2BE198EF29EB20E636F00013C
:102CE0003DEC0FF019BEF28E5CEF1AF0196AF2BEDD
:102CF000198EF29E0A0E0301666F656B00011EECD1
:102D000010F019BEF28E196AF2BE198EF29EB00E44
:102D10000301636F00013DEC0FF019BEF28E030159
:102D2000516B010E506F515113080FE3196AF2BE37
:102D3000198EF29E646B000152EC0FF019BEF28EF8
:102D40000301502BD8B4512BEED7196AF2BE198E5D
:102D5000F29EB20E636F00013DEC0FF019BEF28ED1
:102D6000D6EF1AF04CC3EAFF4BC3E9FF030159C386
:102D7000EFFFE92AD8B4EA2AEF6A4B2BD8B44C2BE0
:102D80000001000C0900F5520CE0F6CF50F3F7CF2C
:102D900051F3F5CF59F3E6DF50C3F6FF51C3F7FF08
:102DA000F1D7000C030151BF11D00F0E006E503946
:102DB00000160A0E005C03E2300E002602D05151CC
:102DC000002600C059F30001CDDF03010F0E50179C
:102DD0000A0E505D02E2300E02D0519F5151502731
:102DE00050C359F30001BEDF000CEACF58F3E9CF1E
:102DF00057F303015139F009536F5327E20F546F12
:102E0000320F566F51510F0B542754275627E90F95
:102E1000556F5527552750390F0B552756275537CE
:102E20005637561F563750510F0B56275337070E3C
:102E3000526F0A0E55075627FDE354075527FDE349
:102E400053075427FDE352075327FDE3030EEA6EB1
:102E5000520EE96E070E5715579DE926560EE95C8E
:102E6000D8B4578DEF50006E08E157BD06D057B962
:102E700015D057B702D0200E03D057875799300E80
:102E80000026EACF51F3E9CF50F300C059F3000117
:102E900069DF51C3EAFF50C3E9FF0301EE5057ADAC
:102EA000DDD700017CEF1BF08A6A0301506B5051A3
:102EB00003081EE30400010E006E5051016E04E091
:102EC000D8900036012EFCD70050FF0A936E040004
:102ED0001A0E006E002EFED7036A5051390FE96EAC
:102EE000010E0320EA6E8150F00BEF6E502BDFD7FE
:102EF000FF0E936E01013A3B39513A110301516FB4
:102F000001013C3B3B513C11030151C335F1E8CF7A
:102F100034F1010134513619006E35513719036E01
:102F20000050031003E0386B316B306B38511308DD
:102F300017E23451FF0A0301516F01013551FF0AB5
:102F40000301526F515302E1525308E00101345121
:102F5000FF0A306F3551FF0A316F030103D00101C1
:102F6000382B030135C137F134C136F104000001BB
:102F700006EF1CF0F86AD09E078EEA6AE96A700EC6
:102F8000D36E400E9B6ED350080E206E060E216E3F
:102F9000FF0E0101356FFF0E346FFF0E376FFF0E0E
:102FA000366F386B94948B94B886A00EAF6E010E7A
:102FB000B06EA60EAC6E900EAB6E0000000003016A
:102FC0004C6B4B6BC150C00B0F09C16E070EB46E3A
:102FD0001A6A1B6A0101246B256B266B276B286B11
:102FE000296B2A6B2B6B2C6B2D6B2E6B2F6B306B25
:102FF000316B326B336B396B3A6B3B6B3C6B3D6BBC
:103000003E6B3F6B406B416B426B436B446B456B5C
:10301000466B476B486B496B4A6B4B6B4C6B4D6B0C
:103020004E6B4F6B506B516B526B536B546B556BBC
:10303000566B576B586B596B5A6B5B6B5C6B5D6B6C
:103040005E6B5F6B606B616B626B636B646B656B1C
:10305000666B676B686B696B6A6B6B6B6C6B6D6BCC
:103060006E6B6F6B706B716B726B736B746B756B7C
:10307000766B776B786B796B7A6B7B6B7C6B7D6B2C
:103080007E6B7F6B806B816B826B836B846B856BDC
:10309000866B876B886B896B8A6B8B6B8C6B8D6B8C
:1030A0008E6B8F6B906B916B926B936B946B956B3C
:1030B000966B976B986B996B9A6B9B6B9C6B9D6BEC
:1030C0009E6B9F6BA06BA16BA26BA36BA46BA56B9C
:1030D000A66BA76BA86BA96BAA6BAB6BAC6BAD6B4C
:1030E000AE6BAF6BB06BB16BB26BB36BB46BB56BFC
:1030F000B66BB76BB86BB96BBA6BBB6BBC6BBD6BAC
:10310000BE6BBF6BC06BC16BC26BC36BC46BC56B5B
:10311000C66BC76BC86BC96BCA6BCB6BCC6BCD6B0B
:10312000CE6BCF6BD06BD16BD26BD36BD46BD56BBB
:10313000D66BD76BD86BD96BDA6BDB6BDC6BDD6B6B
:10314000DE6BDF6BE06BE16BE26BE36BE46BE56B1B
:10315000E66BE76BE86BE96BEA6BEB6BEC6BED6BCB
:10316000EE6BEF6BF06BF16BF26BF36BF46BF56B7B
:10317000F66BF76BF86BF96BFA6BFB6BFC6BFD6B2B
:10318000FE6BFF6B0201006B016B026B036B046B48
:10319000056B066B076B086B096B0A6B0B6B0C6B93
:1031A0000D6B0E6B0F6B106B116B126B136B146B43
:1031B000156B166B176B186B196B1A6B1B6B1C6BF3
:1031C0001D6B1E6B1F6B206B216B226B236B246BA3
:1031D000256B266B276B286B296B2A6B2B6B2C6B53
:1031E0002D6B2E6B2F6B306B316B326B336B346B03
:1031F000356B366B376B386B396B3A6B3B6B3C6BB3
:103200003D6B3E6B3F6B406B416B426B436B446B62
:10321000456B466B476B486B496B4A6B4B6B4C6B12
:103220004D6B4E6B4F6B506B516B526B536B546BC2
:10323000556B566B576B586B596B5A6B5B6B5C6B72
:103240005D6B5E6B5F6B606B616B626B636B646B22
:10325000656B666B676B686B696B6A6B6B6B6C6BD2
:103260006D6B6E6B6F6B706B716B726B736B746B82
:10327000756B766B776B786B796B7A6B7B6B7C6B32
:103280007D6B7E6B7F6B806B816B826B836B846BE2
:10329000856B866B876B886B896B8A6B8B6B8C6B92
:1032A0008D6B8E6B8F6B906B916B926B936B946B42
:1032B000956B966B976B986B996B9A6B9B6B9C6BF2
:1032C0009D6B9E6B9F6BA06BA16BA26BA36BA46BA2
:1032D000A56BA66BA76BA86BA96BAA6BAB6BAC6B52
:1032E000AD6BAE6BAF6BB06BB16BB26BB36BB46B02
:1032F000B56BB66BB76BB86BB96BBA6BBB6BBC6BB2
:10330000BD6BBE6BBF6BC06BC16BC26BC36BC46B61
:10331000C56BC66BC76BC86BC96BCA6BCB6BCC6B11
:10332000CD6BCE6BCF6BD06BD16BD26BD36BD46BC1
:10333000D56BD66BD76BD86BD96BDA6BDB6BDC6B71
:10334000DD6BDE6BDF6BE06BE16BE26BE36BE46B21
:10335000E56BE66BE76BE86BE96BEA6BEB6BEC6BD1
:10336000ED6BEE6BEF6BF06BF16BF26BF36BF46B81
:10337000F56BF66BF76BF86BF96BFA6BFB6BFC6B31
:10338000FD6BFE6BFF6B0301006B016B026B036B4C
:10339000046B056B066B076B086B096B0A6B0B6B99
:1033A0000C6B0D6B0E6B0F6B106B116B126B136B49
:1033B000146B156B166B176B186B196B1A6B1B6BF9
:1033C0001C6B1D6B1E6B1F6B206B216B226B236BA9
:1033D000246B256B266B276B286B296B2A6B2B6B59
:1033E0002C6B2D6B2E6B2F6B306B316B326B336B09
:1033F000346B356B366B376B386B396B3A6B3B6BB9
:103400003C6B3D6B3E6B3F6B406B416B426B436B68
:10341000446B456B466B476B486B496B4A6B4F6B14
:103420004E6B000115EF15F061EF15F0D4EF15F0BC
:10343000196AF2BE198EF29E29C161F328C160F3A8
:10344000A9EC0CF019BEF28E196AF2BE198EF29E2A
:103450002BC161F32AC160F3C7EC0CF019BEF28EE8
:10346000196AF2BE198EF29E0301616B606B000156
:1034700063EC0CF019BEF28E196AF2BE198EF29E40
:103480000301616B606B000186EC0CF019BEF28EDB
:103490000301536B526B0001DAEC15F0196AF2BEAE
:1034A000198EF29E220E0301636F00013DEC0FF0B6
:1034B00019BEF28E2DEF16F00A0E0301536F526BF8
:1034C0000001DAEC15F0196AF2BE198EF29E420E76
:1034D0000301636F00013DEC0FF019BEF28E030192
:1034E000536B140E526F0001DAEC15F0196AF2BE3C
:1034F000198EF29E430E0301636F00013DEC0FF045
:1035000019BEF28E080E0301536F526B0001DAEC04
:1035100015F0196AF2BE198EF29E400E0301636F18
:1035200000013DEC0FF019BEF28E0301536B140E37
:10353000526F0001DAEC15F0196AF2BE198EF29E94
:10354000410E0301636F00013DEC0FF019BEF28ED6
:10355000196AF2BE198EF29E880E0301636F000194
:103560003DEC0FF019BEF28E196AF2BE198EF29E72
:103570009F0E0301636F00013DEC0FF019BEF28E48
:10358000196AF2BE198EF29EA00E0301636F00014C
:103590003DEC0FF019BEF28E196AF2BE198EF29E42
:1035A00083EC10F019BEF28E76EF16F003014C6B2F
:1035B000220E4B6FC80EF66E290EF76E0001C2EC9C
:1035C00016F0196AF2BE198EF29E03015F6B606BF2
:1035D000626B220E616F0001B3EC10F019BEF28E27
:1035E00003014C6B220E4B6FDC0EF66E290EF76E4C
:1035F0000001C2EC16F0196AF2BE198EF29E0301A8
:103600005F6B010E606F626B220E616F0001B3ECA5
:1036100010F019BEF28E03014C6B220E4B6F490E57
:10362000596F0001B2EC16F0440E0301596F00010E
:10363000B2EC16F03A0E0301596F0001B2EC16F02D
:10364000196AF2BE198EF29E03015F6B030E606F62
:10365000626B220E616F0001B3EC10F019BEF28EA6
:1036600003014C6B220E4B6F27C150F3370E516F85
:103670000001D2EC16F026C150F3370E0301516F52
:103680000001D2EC16F0196AF2BE198EF29E030EFA
:1036900003015F6F606F626B220E616F0001B3EC1C
:1036A00010F019BEF28E03014C6B220E4B6FE80E28
:1036B000F66E290EF76E0001C2EC16F0196AF2BE22
:1036C000198EF29E0A0E03015F6F030E606F626B2C
:1036D000220E616F0001B3EC10F019BEF28E0301EF
:1036E0004C6B220E4B6F100EE96E25C151F324C1B5
:1036F00050F30001F5EF16F0196AF2BE198EF29E32
:103700000F0E03015F6F030E606F626B220E616F1D
:103710000001B3EC10F019BEF28E03014C6B220EC7
:103720004B6FEE0EF66E290EF76E0001C2EC16F02E
:10373000196AF2BE198EF29E050E03015F6F060E26
:10374000606F626B220E616F0001B3EC10F019BE66
:10375000F28E03014C6B220E4B6FFA0EF66E290EA1
:10376000F76E0001C2EC16F0196AF2BE198EF29ED5
:10377000050E03015F6F070E606F626B220E616FB3
:103780000001B3EC10F019BEF28E03014C6B220E57
:103790004B6F060EF66E2A0EF76E0001C2EC16F0A5
:1037A000196AF2BE198EF29E03015F6B090E606FFB
:1037B000626B220E616F0001B3EC10F019BEF28E45
:1037C00003014C6B220E4B6F1C0EF66E2A0EF76E29
:1037D0000001C2EC16F0196AF2BE198EF29E040EB8
:1037E00003015F6F0F0E606F626B220E616F00014D
:1037F000B3EC10F019BEF28E9D909D8AC00EF212AD
:103800000400F2A415D0F29454EF17F003014F51C5
:1038100000080AE2FF0A03E14E512C0805E24F6B53
:103820004E6B94928B7203D04E2BD8B44F2B000169
:04383000E7D7FFD700
:0200000400F00A
:08000000004B02003C0044002B
:020000040030CA
:0E00000000C81900000700000FC00FE00F40FD
:00000001FF
;PIC18F4520
;CRC=DF8F  CREATED="15-May-20 19:27"
